{
    "contractName": "Auction",
    "abi": [
        {
            "anonymous": false,
            "inputs": [
                {
                    "indexed": false,
                    "internalType": "string",
                    "name": "message",
                    "type": "string"
                }
            ],
            "name": "auctionStop",
            "type": "event"
        },
        {
            "anonymous": false,
            "inputs": [
                {
                    "indexed": false,
                    "internalType": "address",
                    "name": "buyer",
                    "type": "address"
                },
                {
                    "indexed": false,
                    "internalType": "uint256",
                    "name": "price",
                    "type": "uint256"
                }
            ],
            "name": "buyerPrint",
            "type": "event"
        },
        {
            "inputs": [],
            "name": "AuctionEnd",
            "outputs": [],
            "stateMutability": "payable",
            "type": "function"
        },
        {
            "inputs": [],
            "name": "Count",
            "outputs": [
                {
                    "internalType": "uint256",
                    "name": "",
                    "type": "uint256"
                }
            ],
            "stateMutability": "view",
            "type": "function"
        },
        {
            "inputs": [],
            "name": "GetItem",
            "outputs": [
                {
                    "internalType": "string",
                    "name": "_name",
                    "type": "string"
                },
                {
                    "internalType": "uint256",
                    "name": "_price",
                    "type": "uint256"
                },
                {
                    "internalType": "uint256",
                    "name": "_highestPrice",
                    "type": "uint256"
                },
                {
                    "internalType": "uint256",
                    "name": "_startTime",
                    "type": "uint256"
                },
                {
                    "internalType": "uint256",
                    "name": "_conTime",
                    "type": "uint256"
                },
                {
                    "internalType": "bool",
                    "name": "_isEnd",
                    "type": "bool"
                },
                {
                    "internalType": "address",
                    "name": "_seller",
                    "type": "address"
                },
                {
                    "internalType": "uint256",
                    "name": "_finalPrice",
                    "type": "uint256"
                },
                {
                    "internalType": "address",
                    "name": "_finalBuyer",
                    "type": "address"
                }
            ],
            "stateMutability": "nonpayable",
            "type": "function"
        },
        {
            "inputs": [
                {
                    "internalType": "string",
                    "name": "_name",
                    "type": "string"
                },
                {
                    "internalType": "uint256",
                    "name": "_price",
                    "type": "uint256"
                },
                {
                    "internalType": "uint256",
                    "name": "_highestPrice",
                    "type": "uint256"
                },
                {
                    "internalType": "uint256",
                    "name": "_startTime",
                    "type": "uint256"
                },
                {
                    "internalType": "uint256",
                    "name": "_conTime",
                    "type": "uint256"
                }
            ],
            "name": "NewItem",
            "outputs": [],
            "stateMutability": "nonpayable",
            "type": "function"
        },
        {
            "inputs": [],
            "name": "PlacingBids",
            "outputs": [],
            "stateMutability": "payable",
            "type": "function"
        },
        {
            "inputs": [],
            "name": "Stop",
            "outputs": [],
            "stateMutability": "nonpayable",
            "type": "function"
        },
        {
            "inputs": [
                {
                    "internalType": "uint256",
                    "name": "_change",
                    "type": "uint256"
                }
            ],
            "name": "changeMinimum",
            "outputs": [],
            "stateMutability": "nonpayable",
            "type": "function"
        },
        {
            "inputs": [],
            "name": "getBuyerList",
            "outputs": [],
            "stateMutability": "nonpayable",
            "type": "function"
        }
    ],
    "bytecode": "608060405234801561001057600080fd5b50610bc1806100206000396000f3fe60806040526004361061007b5760003560e01c806393a8333e1161004e57806393a8333e146100e5578063af909ced14610109578063bd4efbfb14610129578063bedf0f4a1461013e5761007b565b80632a513dd91461008057806332ffdf80146100a257806361ee3b92146100aa57806385d679f9146100b2575b600080fd5b34801561008c57600080fd5b506100a061009b3660046109de565b610153565b005b6100a06101d6565b6100a0610409565b3480156100be57600080fd5b506100c76105da565b6040516100dc999897969594939291906109f6565b60405180910390f35b3480156100f157600080fd5b506100fb60015481565b6040519081526020016100dc565b34801561011557600080fd5b506100a0610124366004610913565b6106de565b34801561013557600080fd5b506100a0610727565b34801561014a57600080fd5b506100a061081c565b60075461010090046001600160a01b0316331461018b5760405162461bcd60e51b815260040161018290610aae565b60405180910390fd5b600854156101d15760405162461bcd60e51b8152602060048201526013602482015272105d58dd1a5bdb881a185cc81cdd185c9d1959606a1b6044820152606401610182565b600355565b6007805460ff19166001179055600854156104075760005b60015481101561037357600954600b80546001600160a01b03909216918390811061022957634e487b7160e01b600052603260045260246000fd5b6000918252602090912001546001600160a01b03161461036157600054600b80546001600160a01b039092169163a9059cbb91908490811061027b57634e487b7160e01b600052603260045260246000fd5b9060005260206000200160009054906101000a90046001600160a01b0316600a6000600b86815481106102be57634e487b7160e01b600052603260045260246000fd5b6000918252602080832091909101546001600160a01b039081168452908301939093526040918201902054905160e085901b6001600160e01b03191681529290911660048301526024820152604401602060405180830381600087803b15801561032757600080fd5b505af115801561033b573d6000803e3d6000fd5b505050506040513d601f19601f8201168201806040525081019061035f91906108ec565b505b8061036b81610b44565b9150506101ee565b5060005460075460085460405163a9059cbb60e01b81526001600160a01b0361010090930483166004820152602481019190915291169063a9059cbb90604401602060405180830381600087803b1580156103cd57600080fd5b505af11580156103e1573d6000803e3d6000fd5b505050506040513d601f19601f8201168201806040525081019061040591906108ec565b505b565b6006546005546104199190610af1565b421061045e5760405162461bcd60e51b81526020600482015260146024820152732134b23234b733903a34b6b29034b99037bb32b960611b6044820152606401610182565b60075460ff161515600114156104ac5760405162461bcd60e51b81526020600482015260136024820152722a34329020bab1ba34b7b71034b99037bb32b960691b6044820152606401610182565b336000908152600a602052604090205461052957600b805460018181019092557f0175b7a638427703f0dbe7bb9bbf987a2551717b34e79f33b5b1008d1fa01db90180546001600160a01b031916339081179091556000908152600a602052604081203490558154919061051f83610b44565b919050555061054e565b336000908152600a602052604081208054349290610548908490610af1565b90915550505b600454336000908152600a60205260409020541061059957336000818152600a6020526040902054600855600980546001600160a01b03191690911790556105946101d6565b610407565b600854336000908152600a6020526040902054111561040757336000818152600a6020526040902054600855600980546001600160a01b0319169091179055565b60606000806000806000806000806002600354600454600554600654600760009054906101000a900460ff16600760019054906101000a90046001600160a01b0316600854600960009054906101000a90046001600160a01b031688805461064190610b09565b80601f016020809104026020016040519081016040528092919081815260200182805461066d90610b09565b80156106ba5780601f1061068f576101008083540402835291602001916106ba565b820191906000526020600020905b81548152906001019060200180831161069d57829003601f168201915b50505050509850985098509850985098509850985098509850909192939495969798565b84516106f1906002906020880190610853565b5060039390935560049190915560055560065550600780546001600160a81b031916610100330217905560006008819055600155565b60005b600b54811015610405577f4d5902ad443942936e0fd6c4e733185c221e2080be22bf1a28eaeb472338880e600b828154811061077657634e487b7160e01b600052603260045260246000fd5b9060005260206000200160009054906101000a90046001600160a01b0316600a6000600b85815481106107b957634e487b7160e01b600052603260045260246000fd5b60009182526020808320909101546001600160a01b0316835282019290925260409081019091205490516108029291906001600160a01b03929092168252602082015260400190565b60405180910390a18061081481610b44565b91505061072a565b60075461010090046001600160a01b0316331461084b5760405162461bcd60e51b815260040161018290610aae565b6104076101d6565b82805461085f90610b09565b90600052602060002090601f01602090048101928261088157600085556108c7565b82601f1061089a57805160ff19168380011785556108c7565b828001600101855582156108c7579182015b828111156108c75782518255916020019190600101906108ac565b506108d39291506108d7565b5090565b5b808211156108d357600081556001016108d8565b6000602082840312156108fd578081fd5b8151801515811461090c578182fd5b9392505050565b600080600080600060a0868803121561092a578081fd5b853567ffffffffffffffff80821115610941578283fd5b818801915088601f830112610954578283fd5b81358181111561096657610966610b75565b604051601f8201601f19908116603f0116810190838211818310171561098e5761098e610b75565b816040528281528b60208487010111156109a6578586fd5b826020860160208301379182016020908101959095525099928801359850505060408601359560608101359550608001359350915050565b6000602082840312156109ef578081fd5b5035919050565b60006101208083528b5180828501528291505b80821015610a2b576020828e0101516101408386010152602082019150610a09565b80821115610a3d578261014082860101525b610140601f19601f83011685010192505050896020830152886040830152876060830152866080830152610a7560a083018715159052565b6001600160a01b03851660c08301528360e0830152610aa06101008301846001600160a01b03169052565b9a9950505050505050505050565b60208082526023908201527f596f7520617265206e6f74207468652073656c6c6572206f662074686973206960408201526274656d60e81b606082015260800190565b60008219821115610b0457610b04610b5f565b500190565b600181811c90821680610b1d57607f821691505b60208210811415610b3e57634e487b7160e01b600052602260045260246000fd5b50919050565b6000600019821415610b5857610b58610b5f565b5060010190565b634e487b7160e01b600052601160045260246000fd5b634e487b7160e01b600052604160045260246000fdfea264697066735822122006293ccc76d68cc0b2c9924a22dac582db3d900d8dd920ffefd69b7316d0b80164736f6c63430008030033",
    "sourcePath": "d:/Eth/contracts/Auction.sol",
    "compiler": {
        "name": "solc",
        "version": "0.8.3+commit.8d00100c"
    },
    "functionHashes": {
        "AuctionEnd()": "32ffdf80",
        "Count()": "93a8333e",
        "GetItem()": "85d679f9",
        "NewItem(string,uint256,uint256,uint256,uint256)": "af909ced",
        "PlacingBids()": "61ee3b92",
        "Stop()": "bedf0f4a",
        "changeMinimum(uint256)": "2a513dd9",
        "getBuyerList()": "bd4efbfb"
    },
    "gasEstimates": {
        "creation": {
            "codeDepositCost": "601800",
            "executionCost": "638",
            "totalCost": "602438"
        },
        "external": {
            "AuctionEnd()": "infinite",
            "Count()": "995",
            "GetItem()": "infinite",
            "NewItem(string,uint256,uint256,uint256,uint256)": "infinite",
            "PlacingBids()": "infinite",
            "Stop()": "infinite",
            "changeMinimum(uint256)": "21896",
            "getBuyerList()": "infinite"
        }
    }
}