{
  "contractName": "Auction",
  "abi": [
    {
      "inputs": [
        {
          "internalType": "contract Standard_Token",
          "name": "token",
          "type": "address"
        }
      ],
      "stateMutability": "nonpayable",
      "type": "constructor"
    },
    {
      "anonymous": false,
      "inputs": [
        {
          "indexed": false,
          "internalType": "string",
          "name": "message",
          "type": "string"
        }
      ],
      "name": "auctionStop",
      "type": "event"
    },
    {
      "anonymous": false,
      "inputs": [
        {
          "indexed": false,
          "internalType": "address",
          "name": "buyer",
          "type": "address"
        },
        {
          "indexed": false,
          "internalType": "uint256",
          "name": "price",
          "type": "uint256"
        }
      ],
      "name": "buyerPrint",
      "type": "event"
    },
    {
      "inputs": [],
      "name": "Count",
      "outputs": [
        {
          "internalType": "uint256",
          "name": "",
          "type": "uint256"
        }
      ],
      "stateMutability": "view",
      "type": "function"
    },
    {
      "inputs": [],
      "name": "ERC20",
      "outputs": [
        {
          "internalType": "contract Standard_Token",
          "name": "",
          "type": "address"
        }
      ],
      "stateMutability": "view",
      "type": "function"
    },
    {
      "inputs": [
        {
          "internalType": "address",
          "name": "",
          "type": "address"
        }
      ],
      "name": "buyerList",
      "outputs": [
        {
          "internalType": "uint256",
          "name": "",
          "type": "uint256"
        }
      ],
      "stateMutability": "view",
      "type": "function"
    },
    {
      "inputs": [],
      "name": "conTime",
      "outputs": [
        {
          "internalType": "uint256",
          "name": "",
          "type": "uint256"
        }
      ],
      "stateMutability": "view",
      "type": "function"
    },
    {
      "inputs": [],
      "name": "contractAddress",
      "outputs": [
        {
          "internalType": "address payable",
          "name": "",
          "type": "address"
        }
      ],
      "stateMutability": "view",
      "type": "function"
    },
    {
      "inputs": [],
      "name": "finalBuyer",
      "outputs": [
        {
          "internalType": "address",
          "name": "",
          "type": "address"
        }
      ],
      "stateMutability": "view",
      "type": "function"
    },
    {
      "inputs": [],
      "name": "finalPrice",
      "outputs": [
        {
          "internalType": "uint256",
          "name": "",
          "type": "uint256"
        }
      ],
      "stateMutability": "view",
      "type": "function"
    },
    {
      "inputs": [],
      "name": "highestPrice",
      "outputs": [
        {
          "internalType": "uint256",
          "name": "",
          "type": "uint256"
        }
      ],
      "stateMutability": "view",
      "type": "function"
    },
    {
      "inputs": [],
      "name": "isEnd",
      "outputs": [
        {
          "internalType": "bool",
          "name": "",
          "type": "bool"
        }
      ],
      "stateMutability": "view",
      "type": "function"
    },
    {
      "inputs": [
        {
          "internalType": "uint256",
          "name": "",
          "type": "uint256"
        }
      ],
      "name": "listKey",
      "outputs": [
        {
          "internalType": "address",
          "name": "",
          "type": "address"
        }
      ],
      "stateMutability": "view",
      "type": "function"
    },
    {
      "inputs": [],
      "name": "name",
      "outputs": [
        {
          "internalType": "string",
          "name": "",
          "type": "string"
        }
      ],
      "stateMutability": "view",
      "type": "function"
    },
    {
      "inputs": [],
      "name": "price",
      "outputs": [
        {
          "internalType": "uint256",
          "name": "",
          "type": "uint256"
        }
      ],
      "stateMutability": "view",
      "type": "function"
    },
    {
      "inputs": [],
      "name": "seller",
      "outputs": [
        {
          "internalType": "address",
          "name": "",
          "type": "address"
        }
      ],
      "stateMutability": "view",
      "type": "function"
    },
    {
      "inputs": [],
      "name": "startTime",
      "outputs": [
        {
          "internalType": "uint256",
          "name": "",
          "type": "uint256"
        }
      ],
      "stateMutability": "view",
      "type": "function"
    },
    {
      "inputs": [
        {
          "internalType": "string",
          "name": "_name",
          "type": "string"
        },
        {
          "internalType": "uint256",
          "name": "_price",
          "type": "uint256"
        },
        {
          "internalType": "uint256",
          "name": "_highestPrice",
          "type": "uint256"
        },
        {
          "internalType": "uint256",
          "name": "_startTime",
          "type": "uint256"
        },
        {
          "internalType": "uint256",
          "name": "_conTime",
          "type": "uint256"
        }
      ],
      "name": "NewItem",
      "outputs": [],
      "stateMutability": "nonpayable",
      "type": "function"
    },
    {
      "inputs": [],
      "name": "GetItem",
      "outputs": [
        {
          "internalType": "string",
          "name": "_name",
          "type": "string"
        },
        {
          "internalType": "uint256",
          "name": "_price",
          "type": "uint256"
        },
        {
          "internalType": "uint256",
          "name": "_highestPrice",
          "type": "uint256"
        },
        {
          "internalType": "uint256",
          "name": "_startTime",
          "type": "uint256"
        },
        {
          "internalType": "uint256",
          "name": "_conTime",
          "type": "uint256"
        },
        {
          "internalType": "bool",
          "name": "_isEnd",
          "type": "bool"
        },
        {
          "internalType": "address",
          "name": "_seller",
          "type": "address"
        },
        {
          "internalType": "uint256",
          "name": "_finalPrice",
          "type": "uint256"
        },
        {
          "internalType": "address",
          "name": "_finalBuyer",
          "type": "address"
        }
      ],
      "stateMutability": "nonpayable",
      "type": "function"
    },
    {
      "inputs": [],
      "name": "Stop",
      "outputs": [],
      "stateMutability": "nonpayable",
      "type": "function"
    },
    {
      "inputs": [
        {
          "internalType": "uint256",
          "name": "_change",
          "type": "uint256"
        }
      ],
      "name": "changeMinimum",
      "outputs": [],
      "stateMutability": "nonpayable",
      "type": "function"
    },
    {
      "inputs": [
        {
          "internalType": "uint256",
          "name": "value",
          "type": "uint256"
        }
      ],
      "name": "Bid",
      "outputs": [],
      "stateMutability": "payable",
      "type": "function"
    },
    {
      "inputs": [],
      "name": "getBuyerList",
      "outputs": [],
      "stateMutability": "nonpayable",
      "type": "function"
    },
    {
      "inputs": [],
      "name": "AuctionEnd",
      "outputs": [],
      "stateMutability": "payable",
      "type": "function"
    }
  ],
  "bytecode": "0x608060405230600160006101000a81548173ffffffffffffffffffffffffffffffffffffffff021916908373ffffffffffffffffffffffffffffffffffffffff1602179055503480156200005257600080fd5b5060405162001f9b38038062001f9b8339818101604052810190620000789190620000d6565b806000806101000a81548173ffffffffffffffffffffffffffffffffffffffff021916908373ffffffffffffffffffffffffffffffffffffffff1602179055505062000164565b600081519050620000d0816200014a565b92915050565b600060208284031215620000e957600080fd5b6000620000f984828501620000bf565b91505092915050565b60006200010f826200012a565b9050919050565b6000620001238262000102565b9050919050565b600073ffffffffffffffffffffffffffffffffffffffff82169050919050565b620001558162000116565b81146200016157600080fd5b50565b611e2780620001746000396000f3fe60806040526004361061012a5760003560e01c806385d679f9116100ab578063af909ced1161006f578063af909ced146103ae578063bd4efbfb146103d7578063bedf0f4a146103ee578063cc4aa20414610405578063f6b4dfb414610430578063fde3af431461045b5761012a565b806385d679f9146102bd57806393a8333e146102f057806397bfd18e1461031b578063a035b1fe14610358578063a6b513ee146103835761012a565b806332ffdf80116100f257806332ffdf801461020457806342ca811c1461020e57806355fc62751461023957806378e97925146102765780637a183e84146102a15761012a565b806306fdde031461012f57806308551a531461015a5780630e8670e0146101855780632a513dd9146101b05780632fc6e8b7146101d9575b600080fd5b34801561013b57600080fd5b50610144610486565b6040516101519190611850565b60405180910390f35b34801561016657600080fd5b5061016f610514565b60405161017c9190611784565b60405180910390f35b34801561019157600080fd5b5061019a61053a565b6040516101a791906119a6565b60405180910390f35b3480156101bc57600080fd5b506101d760048036038101906101d29190611628565b610540565b005b3480156101e557600080fd5b506101ee61061f565b6040516101fb919061181a565b60405180910390f35b61020c610632565b005b34801561021a57600080fd5b50610223610b33565b60405161023091906119a6565b60405180910390f35b34801561024557600080fd5b50610260600480360381019061025b9190611547565b610b39565b60405161026d91906119a6565b60405180910390f35b34801561028257600080fd5b5061028b610b51565b60405161029891906119a6565b60405180910390f35b6102bb60048036038101906102b69190611628565b610b57565b005b3480156102c957600080fd5b506102d2611008565b6040516102e799989796959493929190611872565b60405180910390f35b3480156102fc57600080fd5b50610305611126565b60405161031291906119a6565b60405180910390f35b34801561032757600080fd5b50610342600480360381019061033d9190611628565b61112c565b60405161034f9190611784565b60405180910390f35b34801561036457600080fd5b5061036d61116b565b60405161037a91906119a6565b60405180910390f35b34801561038f57600080fd5b50610398611171565b6040516103a591906119a6565b60405180910390f35b3480156103ba57600080fd5b506103d560048036038101906103d09190611599565b611177565b005b3480156103e357600080fd5b506103ec61121d565b005b3480156103fa57600080fd5b50610403611383565b005b34801561041157600080fd5b5061041a61138d565b6040516104279190611835565b60405180910390f35b34801561043c57600080fd5b506104456113b1565b604051610452919061179f565b60405180910390f35b34801561046757600080fd5b506104706113d7565b60405161047d9190611784565b60405180910390f35b6003805461049390611b49565b80601f01602080910402602001604051908101604052809291908181526020018280546104bf90611b49565b801561050c5780601f106104e15761010080835404028352916020019161050c565b820191906000526020600020905b8154815290600101906020018083116104ef57829003601f168201915b505050505081565b600860019054906101000a900473ffffffffffffffffffffffffffffffffffffffff1681565b60055481565b3373ffffffffffffffffffffffffffffffffffffffff16600860019054906101000a900473ffffffffffffffffffffffffffffffffffffffff1673ffffffffffffffffffffffffffffffffffffffff16146105d0576040517f08c379a00000000000000000000000000000000000000000000000000000000081526004016105c790611926565b60405180910390fd5b600060095414610615576040517f08c379a000000000000000000000000000000000000000000000000000000000815260040161060c90611906565b60405180910390fd5b8060048190555050565b600860009054906101000a900460ff1681565b6001600860006101000a81548160ff021916908315150217905550600060095414610b315760005b600254811015610a1357600a60009054906101000a900473ffffffffffffffffffffffffffffffffffffffff1673ffffffffffffffffffffffffffffffffffffffff16600c82815481106106d7577f4e487b7100000000000000000000000000000000000000000000000000000000600052603260045260246000fd5b9060005260206000200160009054906101000a900473ffffffffffffffffffffffffffffffffffffffff1673ffffffffffffffffffffffffffffffffffffffff1614610a005760008054906101000a900473ffffffffffffffffffffffffffffffffffffffff1673ffffffffffffffffffffffffffffffffffffffff1663a9059cbb600c8381548110610793577f4e487b7100000000000000000000000000000000000000000000000000000000600052603260045260246000fd5b9060005260206000200160009054906101000a900473ffffffffffffffffffffffffffffffffffffffff16600b6000600c86815481106107fc577f4e487b7100000000000000000000000000000000000000000000000000000000600052603260045260246000fd5b9060005260206000200160009054906101000a900473ffffffffffffffffffffffffffffffffffffffff1673ffffffffffffffffffffffffffffffffffffffff1673ffffffffffffffffffffffffffffffffffffffff168152602001908152602001600020546040518363ffffffff1660e01b815260040161087f9291906117f1565b602060405180830381600087803b15801561089957600080fd5b505af11580156108ad573d6000803e3d6000fd5b505050506040513d601f19601f820116820180604052508101906108d19190611570565b506000600c828154811061090e577f4e487b7100000000000000000000000000000000000000000000000000000000600052603260045260246000fd5b9060005260206000200160006101000a81548173ffffffffffffffffffffffffffffffffffffffff021916908373ffffffffffffffffffffffffffffffffffffffff1602179055506000600b6000600c8481548110610996577f4e487b7100000000000000000000000000000000000000000000000000000000600052603260045260246000fd5b9060005260206000200160009054906101000a900473ffffffffffffffffffffffffffffffffffffffff1673ffffffffffffffffffffffffffffffffffffffff1673ffffffffffffffffffffffffffffffffffffffff168152602001908152602001600020819055505b8080610a0b90611bac565b91505061065a565b5060008054906101000a900473ffffffffffffffffffffffffffffffffffffffff1673ffffffffffffffffffffffffffffffffffffffff1663a9059cbb600860019054906101000a900473ffffffffffffffffffffffffffffffffffffffff166009546040518363ffffffff1660e01b8152600401610a939291906117f1565b602060405180830381600087803b158015610aad57600080fd5b505af1158015610ac1573d6000803e3d6000fd5b505050506040513d601f19601f82011682018060405250810190610ae59190611570565b506000600a60006101000a81548173ffffffffffffffffffffffffffffffffffffffff021916908373ffffffffffffffffffffffffffffffffffffffff16021790555060006009819055505b565b60075481565b600b6020528060005260406000206000915090505481565b60065481565b600754600654610b679190611a33565b4210610ba8576040517f08c379a0000000000000000000000000000000000000000000000000000000008152600401610b9f90611966565b60405180910390fd5b60011515600860009054906101000a900460ff1615151415610bff576040517f08c379a0000000000000000000000000000000000000000000000000000000008152600401610bf690611986565b60405180910390fd5b60008054906101000a900473ffffffffffffffffffffffffffffffffffffffff1673ffffffffffffffffffffffffffffffffffffffff166323b872dd3330846040518463ffffffff1660e01b8152600401610c5c939291906117ba565b602060405180830381600087803b158015610c7657600080fd5b505af1158015610c8a573d6000803e3d6000fd5b505050506040513d601f19601f82011682018060405250810190610cae9190611570565b506000600b60003373ffffffffffffffffffffffffffffffffffffffff1673ffffffffffffffffffffffffffffffffffffffff168152602001908152602001600020541415610e0057600454811015610d3c576040517f08c379a0000000000000000000000000000000000000000000000000000000008152600401610d3390611946565b60405180910390fd5b600c339080600181540180825580915050600190039060005260206000200160009091909190916101000a81548173ffffffffffffffffffffffffffffffffffffffff021916908373ffffffffffffffffffffffffffffffffffffffff16021790555080600b60003373ffffffffffffffffffffffffffffffffffffffff1673ffffffffffffffffffffffffffffffffffffffff1681526020019081526020016000208190555060026000815480929190610df690611bac565b9190505550610e57565b80600b60003373ffffffffffffffffffffffffffffffffffffffff1673ffffffffffffffffffffffffffffffffffffffff1681526020019081526020016000206000828254610e4f9190611a33565b925050819055505b600554600b60003373ffffffffffffffffffffffffffffffffffffffff1673ffffffffffffffffffffffffffffffffffffffff1681526020019081526020016000205410610f3357600b60003373ffffffffffffffffffffffffffffffffffffffff1673ffffffffffffffffffffffffffffffffffffffff1681526020019081526020016000205460098190555033600a60006101000a81548173ffffffffffffffffffffffffffffffffffffffff021916908373ffffffffffffffffffffffffffffffffffffffff160217905550610f2e610632565b611005565b600954600b60003373ffffffffffffffffffffffffffffffffffffffff1673ffffffffffffffffffffffffffffffffffffffff16815260200190815260200160002054111561100457600b60003373ffffffffffffffffffffffffffffffffffffffff1673ffffffffffffffffffffffffffffffffffffffff1681526020019081526020016000205460098190555033600a60006101000a81548173ffffffffffffffffffffffffffffffffffffffff021916908373ffffffffffffffffffffffffffffffffffffffff1602179055505b5b50565b60606000806000806000806000806003600454600554600654600754600860009054906101000a900460ff16600860019054906101000a900473ffffffffffffffffffffffffffffffffffffffff16600954600a60009054906101000a900473ffffffffffffffffffffffffffffffffffffffff1688805461108990611b49565b80601f01602080910402602001604051908101604052809291908181526020018280546110b590611b49565b80156111025780601f106110d757610100808354040283529160200191611102565b820191906000526020600020905b8154815290600101906020018083116110e557829003601f168201915b50505050509850985098509850985098509850985098509850909192939495969798565b60025481565b600c818154811061113c57600080fd5b906000526020600020016000915054906101000a900473ffffffffffffffffffffffffffffffffffffffff1681565b60045481565b60095481565b846003908051906020019061118d9291906113fd565b50836004819055508260058190555081600681905550806007819055506000600860006101000a81548160ff02191690831515021790555033600860016101000a81548173ffffffffffffffffffffffffffffffffffffffff021916908373ffffffffffffffffffffffffffffffffffffffff160217905550600060098190555060006002819055505050505050565b60005b600c80549050811015611380577f4d5902ad443942936e0fd6c4e733185c221e2080be22bf1a28eaeb472338880e600c8281548110611288577f4e487b7100000000000000000000000000000000000000000000000000000000600052603260045260246000fd5b9060005260206000200160009054906101000a900473ffffffffffffffffffffffffffffffffffffffff16600b6000600c85815481106112f1577f4e487b7100000000000000000000000000000000000000000000000000000000600052603260045260246000fd5b9060005260206000200160009054906101000a900473ffffffffffffffffffffffffffffffffffffffff1673ffffffffffffffffffffffffffffffffffffffff1673ffffffffffffffffffffffffffffffffffffffff168152602001908152602001600020546040516113659291906117f1565b60405180910390a1808061137890611bac565b915050611220565b50565b61138b610632565b565b60008054906101000a900473ffffffffffffffffffffffffffffffffffffffff1681565b600160009054906101000a900473ffffffffffffffffffffffffffffffffffffffff1681565b600a60009054906101000a900473ffffffffffffffffffffffffffffffffffffffff1681565b82805461140990611b49565b90600052602060002090601f01602090048101928261142b5760008555611472565b82601f1061144457805160ff1916838001178555611472565b82800160010185558215611472579182015b82811115611471578251825591602001919060010190611456565b5b50905061147f9190611483565b5090565b5b8082111561149c576000816000905550600101611484565b5090565b60006114b36114ae846119e6565b6119c1565b9050828152602081018484840111156114cb57600080fd5b6114d6848285611b07565b509392505050565b6000813590506114ed81611dac565b92915050565b60008151905061150281611dc3565b92915050565b600082601f83011261151957600080fd5b81356115298482602086016114a0565b91505092915050565b60008135905061154181611dda565b92915050565b60006020828403121561155957600080fd5b6000611567848285016114de565b91505092915050565b60006020828403121561158257600080fd5b6000611590848285016114f3565b91505092915050565b600080600080600060a086880312156115b157600080fd5b600086013567ffffffffffffffff8111156115cb57600080fd5b6115d788828901611508565b95505060206115e888828901611532565b94505060406115f988828901611532565b935050606061160a88828901611532565b925050608061161b88828901611532565b9150509295509295909350565b60006020828403121561163a57600080fd5b600061164884828501611532565b91505092915050565b61165a81611a9b565b82525050565b61166981611a89565b82525050565b61167881611aad565b82525050565b61168781611ae3565b82525050565b600061169882611a17565b6116a28185611a22565b93506116b2818560208601611b16565b6116bb81611c82565b840191505092915050565b60006116d3601383611a22565b91506116de82611c93565b602082019050919050565b60006116f6602383611a22565b915061170182611cbc565b604082019050919050565b6000611719602483611a22565b915061172482611d0b565b604082019050919050565b600061173c601483611a22565b915061174782611d5a565b602082019050919050565b600061175f601383611a22565b915061176a82611d83565b602082019050919050565b61177e81611ad9565b82525050565b60006020820190506117996000830184611660565b92915050565b60006020820190506117b46000830184611651565b92915050565b60006060820190506117cf6000830186611660565b6117dc6020830185611660565b6117e96040830184611775565b949350505050565b60006040820190506118066000830185611660565b6118136020830184611775565b9392505050565b600060208201905061182f600083018461166f565b92915050565b600060208201905061184a600083018461167e565b92915050565b6000602082019050818103600083015261186a818461168d565b905092915050565b600061012082019050818103600083015261188d818c61168d565b905061189c602083018b611775565b6118a9604083018a611775565b6118b66060830189611775565b6118c36080830188611775565b6118d060a083018761166f565b6118dd60c0830186611660565b6118ea60e0830185611775565b6118f8610100830184611660565b9a9950505050505050505050565b6000602082019050818103600083015261191f816116c6565b9050919050565b6000602082019050818103600083015261193f816116e9565b9050919050565b6000602082019050818103600083015261195f8161170c565b9050919050565b6000602082019050818103600083015261197f8161172f565b9050919050565b6000602082019050818103600083015261199f81611752565b9050919050565b60006020820190506119bb6000830184611775565b92915050565b60006119cb6119dc565b90506119d78282611b7b565b919050565b6000604051905090565b600067ffffffffffffffff821115611a0157611a00611c53565b5b611a0a82611c82565b9050602081019050919050565b600081519050919050565b600082825260208201905092915050565b6000611a3e82611ad9565b9150611a4983611ad9565b9250827fffffffffffffffffffffffffffffffffffffffffffffffffffffffffffffffff03821115611a7e57611a7d611bf5565b5b828201905092915050565b6000611a9482611ab9565b9050919050565b6000611aa682611ab9565b9050919050565b60008115159050919050565b600073ffffffffffffffffffffffffffffffffffffffff82169050919050565b6000819050919050565b6000611aee82611af5565b9050919050565b6000611b0082611ab9565b9050919050565b82818337600083830152505050565b60005b83811015611b34578082015181840152602081019050611b19565b83811115611b43576000848401525b50505050565b60006002820490506001821680611b6157607f821691505b60208210811415611b7557611b74611c24565b5b50919050565b611b8482611c82565b810181811067ffffffffffffffff82111715611ba357611ba2611c53565b5b80604052505050565b6000611bb782611ad9565b91507fffffffffffffffffffffffffffffffffffffffffffffffffffffffffffffffff821415611bea57611be9611bf5565b5b600182019050919050565b7f4e487b7100000000000000000000000000000000000000000000000000000000600052601160045260246000fd5b7f4e487b7100000000000000000000000000000000000000000000000000000000600052602260045260246000fd5b7f4e487b7100000000000000000000000000000000000000000000000000000000600052604160045260246000fd5b6000601f19601f8301169050919050565b7f41756374696f6e20686173207374617274656400000000000000000000000000600082015250565b7f596f7520617265206e6f74207468652073656c6c6572206f662074686973206960008201527f74656d0000000000000000000000000000000000000000000000000000000000602082015250565b7f5468652070726963652069732062656c6f7720746865206d696e696d756d207060008201527f7269636500000000000000000000000000000000000000000000000000000000602082015250565b7f42696464696e672074696d65206973206f766572000000000000000000000000600082015250565b7f5468652041756374696f6e206973206f76657200000000000000000000000000600082015250565b611db581611a89565b8114611dc057600080fd5b50565b611dcc81611aad565b8114611dd757600080fd5b50565b611de381611ad9565b8114611dee57600080fd5b5056fea26469706673582212206234c4cffe06153afb0009bb066e95db44faa702fb7bc59f5e8a49f90ee9fae964736f6c63430008030033",
  "immutableReferences": {},
  "source": "// SPDX-License-Identifier: MIT\r\npragma solidity ^0.8.0;\r\n\r\nimport \"./Standard_Token.sol\";\r\n\r\ncontract Auction {\r\n    Standard_Token public ERC20;\r\n\r\n    event buyerPrint(address buyer , uint price);\r\n    event auctionStop(string message);\r\n    address payable public contractAddress=payable(address(this));\r\n    uint public Count;\r\n    \r\n    constructor(Standard_Token token) public {\r\n        ERC20=token;\r\n    }\r\n    //\r\n        string public name;                //\r\n        uint256 public price;              //\r\n        uint256 public highestPrice;       //\r\n        uint256 public startTime;          //\r\n        uint256 public conTime;            //\r\n        bool public isEnd;                 //  true  false\r\n        address public seller;      //\r\n\r\n        uint256 public finalPrice;         //\r\n        address public finalBuyer;         //\r\n        \r\n    mapping(address => uint) public buyerList;\r\n    address[] public listKey;\r\n    \r\n    \r\n    //\r\n    function NewItem(string memory _name,uint _price,uint _highestPrice,uint _startTime,uint _conTime) public {\r\n        name = _name;\r\n        price = _price;\r\n        highestPrice = _highestPrice;\r\n        startTime = _startTime;\r\n        conTime = _conTime;\r\n        isEnd = false;                       //false\r\n        seller = msg.sender;                 //\r\n        finalPrice = 0;\r\n        Count=0;\r\n    }\r\n    \r\n    \r\n    //\r\n    function GetItem() public returns(string memory _name,uint _price,uint _highestPrice,uint _startTime,uint _conTime,bool _isEnd,address _seller,uint _finalPrice,address _finalBuyer){\r\n     \r\n        return(name,price,highestPrice,startTime,conTime,isEnd,seller,finalPrice,finalBuyer);\r\n    }\r\n    \r\n    \r\n    //\r\n    function Stop() public {\r\n       // require(seller==msg.sender,\"You are not the seller of this item\");\r\n       // require(isEnd == false);\r\n        AuctionEnd();\r\n    }\r\n    \r\n    \r\n    //\r\n    function changeMinimum(uint _change) public {\r\n        require(seller == msg.sender , \"You are not the seller of this item\");\r\n        require(finalPrice == 0 , \"Auction has started\");\r\n        price = _change;\r\n    }\r\n    \r\n    \r\n    //\r\n    function Bid(uint value)  public payable {\r\n        \r\n        require(block.timestamp<startTime+conTime,\"Bidding time is over\");      \r\n       \r\n        require(isEnd != true,\"The Auction is over\");\r\n        \r\n        //ERC20.transferFrom(msg.sender,contractAddress, value);   \r\n        ERC20.transferFrom(msg.sender, address(this), value);\r\n        if(buyerList[msg.sender]==0)\r\n        {\r\n            require(value >= price, \"The price is below the minimum price\");\r\n            listKey.push(msg.sender);\r\n            buyerList[msg.sender]=value;\r\n            Count++;\r\n        }\r\n        else\r\n        {\r\n            buyerList[msg.sender]+=value;\r\n        }\r\n        \r\n        if(buyerList[msg.sender]>=highestPrice)\r\n        {\r\n            finalPrice=buyerList[msg.sender];\r\n            finalBuyer=msg.sender;\r\n            AuctionEnd();\r\n        }\r\n        else\r\n        {\r\n             if(buyerList[msg.sender]>finalPrice)\r\n             {\r\n                 finalPrice=buyerList[msg.sender];\r\n                 finalBuyer=msg.sender;\r\n             }\r\n        }\r\n        \r\n    }\r\n    \r\n    \r\n    //\r\n    function getBuyerList() public{\r\n        \r\n        for(uint i = 0; i < listKey.length; i++)\r\n        {\r\n            emit buyerPrint(listKey[i] , buyerList[listKey[i]]);\r\n        }\r\n    }\r\n    \r\n    \r\n    //\r\n    function AuctionEnd() public payable{\r\n       // require(isEnd == false,\"The Auction is over\");\r\n        isEnd=true;\r\n        if(finalPrice != 0)\r\n        {\r\n            for(uint i = 0 ; i < Count ; i++)\r\n            {\r\n                if(listKey[i] != finalBuyer)\r\n                {\r\n                    //listKey[i].transfer(buyerList[listKey[i]]);\r\n                    ERC20.transfer(listKey[i],buyerList[listKey[i]]);\r\n                    listKey[i]=address(0);\r\n                    buyerList[listKey[i]]=0;\r\n                }\r\n            }\r\n            \r\n          //  seller.transfer(finalPrice);\r\n          ERC20.transfer(seller,finalPrice);\r\n          finalBuyer=address(0);\r\n          finalPrice=0;\r\n        }\r\n    }\r\n    \r\n   // function () {revert();}  \r\n}",
  "sourcePath": "D:/Eth/contracts/Auction.sol",
  "compiler": {
    "name": "solc",
    "version": "0.8.3+commit.8d00100c.Emscripten.clang"
  },
  "schemaVersion": "3.3.4",
  "updatedAt": "2021-04-06T04:06:26.206Z",
  "devdoc": {
    "kind": "dev",
    "methods": {},
    "version": 1
  },
  "userdoc": {
    "kind": "user",
    "methods": {},
    "version": 1
  }
}